:1000000000000220812D0000A92D0000AB2D000072
:10001000AD2D0000AF2D0000B12D0000000000004C
:10002000000000000000000000000000B32D0000F0
:10003000B52D000000000000B72D0000B92D000014
:10004000BB2D0000BB2D000031310000750E0000FB
:10005000690E0000BB2D0000BB2D0000BB2D000071
:10006000BB2D0000BB2D0000BB2D0000BB2D0000F0
:10007000BB2D0000BB2D0000BB2D0000BB2D0000E0
:10008000BB2D000079320000BB2D0000BB2D00000D
:10009000BB2D0000BB2D0000BB2D0000BB2D0000C0
:1000A000BB2D0000BB2D0000BB2D0000BB2D0000B0
:1000B000BB2D0000BB2D0000000000000000000070
:1000C000BB2D0000BB2D0000BB2D0000BB2D000090
:1000D000BB2D0000BB2D0000BB2D0000BB2D000080
:1000E000BB2D000000000000000000000000000028
:1000F00000000000BB2D000000000000BB2D000030
:1001000000000000000000000000000000000000EF
:1001100000000000000000000000000000000000DF
:1001200000000000000000000000000000000000CF
:1001300000000000000000000000000000000000BF
:1001400000000000000000000000000000000000AF
:10015000000000000000000000000000000000009F
:10016000000000000000000000000000000000008F
:10017000000000000000000000000000000000007F
:10018000000000000000000000000000000000006F
:10019000000000000000000000000000000000005F
:1001A000000000000000000000000000000000004F
:1001B000000000000000000000000000000000003F
:1001C000000000000000000000000000000000002F
:1001D000000000000000000000000000000000001F
:1001E000000000000000000000000000000000000F
:1001F00000000000000000000000000000000000FF
:10020000044B05481B1A062B02D9044B03B11847AF
:10021000704700BFDF000020DC000020000000006D
:1002200005490648091A891001EBD171491002D01D
:10023000034B03B118477047DC000020DC000020AE
:100240000000000010B5064C237843B9FFF7D8FF33
:10025000044B13B10448AFF300800123237010BD99
:10026000DC000020000000003C7A000008B5084BCC
:100270001BB108490848AFF300800848036813B968
:10028000BDE80840CCE7064B002BF9D09847F7E7CC
:1002900000000000E00000203C7A0000D8000020B0
:1002A00000000000154B002B08BF134B9D46A3F523
:1002B000803A00218B460F461348144A121A04F064
:1002C00020F80F4B002B00D098470E4B002B00D08E
:1002D00098470020002104000D000D48002802D09E
:1002E0000C48AFF3008003F0CBFF2000290002F0A0
:1002F000D9FF03F09FFF00BF0000080000000220AC
:100300000000000000000000DC0000209C03002032
:10031000000000000000000010B5114C0221204632
:1003200001F0B6F9204601F047FC14232382102384
:1003300063820C49204602F0E9FB204601F006FFEB
:1003400012232382242363820749204602F0DEFB26
:10035000204601F0FBFE054B01221A7010BD00BFC4
:100360000C010020D46A0000DC6A000008010020B3
:1003700008B5052003F05EF810B9024B02221A708E
:1003800008BD00BF080100202DE9F047664C674911
:10039000674E8AB007A802F023FF204601F00CFC4C
:1003A0002046032101F074F9624907A802F03BFFDF
:1003B0000DF11A0A0DF118090DF1160805AF002309
:1003C0001A4607A92046CDF80CA0CDF80890CDF824
:1003D0000480009701F07CFABDF81A20BDF81810CF
:1003E000B4F90E300225204693FBF5F3A3EB52033C
:1003F000B4F90C2092FBF5F2A2EB510207A922827C
:10040000638202F079FB204601F0A0FE4FF47A707F
:1004100002F024FF204601F0CFFB474907A802F075
:1004200002FF00231A4607A920468DE8800701F045
:100430004FFABDF81A20BDF81810B4F90E3093FB2E
:10044000F5F32046A3EB5203B4F90C2092FBF5F22E
:10045000A2EB510207A92282638202F04DFB2046E3
:1004600001F074FE4FF47A7002F0F8FE204601F0BD
:10047000A3FB324907A802F0D6FE00231A4607A9BB
:1004800020468DE8800701F023FABDF81A20BDF858
:100490001810B4F90E3093FBF5F32046A3EB52038A
:1004A000B4F90C2092FBF5F2A2EB510207A92282CB
:1004B000638202F021FB204601F048FE4FF47A707F
:1004C00002F0CCFE204601F077FB00231A463146AD
:1004D00020468DE8800701F0ADF9BDF81A20B4F987
:1004E0000E3093FBF5F3A3EB5203B4F90C2092FB0F
:1004F000F5F5BDF818206382A5EB5205314620467C
:10050000258202F003FB204601F020FE0121204657
:1005100001F0BEF80A4B032207A81A7002F01EFE73
:100520000AB0BDE8F08700BF0C010020F67700009C
:10053000E96A0000E56A00005E6B0000E76A0000FF
:100540000801002008B500210C2002F057FF00210F
:10055000082002F053FFFF21012002F0D5FEFF2109
:100560000220BDE8084002F0CFBE08B500210120FE
:1005700002F0CAFE00210220BDE8084002F0C4BE1D
:100580002DE9F0412DED028B84B001A97C487D4E10
:1005900002F016F8029A019B0398524303FB0323CF
:1005A00000FB003003F0B2F841EC100B02F00CF944
:1005B00051EC100B03F0F2FB0A2208EE100A01992D
:1005C000714802F0CEFA2C216F4802F08AFA0A2212
:1005D00002996D4802F0C5FA2C216B4802F081FAAD
:1005E0000A220399684802F0BCFA2C21664802F0FE
:1005F00078FA18EE100A03F09BF841EC100B022178
:10060000614802F072FB614BD3ED007A3378B4EEAF
:10061000E78AF1EE10FA13DD5D4C33B902F006FE05
:100620005C4B18600123337007E0D4ED007AB4EE20
:10063000E78AF1EE10FA40F3998084ED008A95E0A4
:10064000002B00F09380DFED548AB4EEE88AF1EEDF
:1006500010FA40F18B80DFED517AB4EEE78AF1EECB
:1006600010FA40F383804A4F02F0E0FD97ED008AD4
:10067000C8EE287A804617EE900A03F059F8454BE9
:1006800004461868C0EB08000D4603F02FF800225E
:10069000434B03F0CBF902460B462046294603F0B4
:1006A000C5F903F07BFB3F4C00258046204601F056
:1006B00083FA3D4925826582204602F027FA1023FD
:1006C00063823A492582204602F007FAD7ED007A84
:1006D00087EEA87A17EE100A03F02AF841EC100B07
:1006E0000221204602F0FEFA3149204602F00EFABD
:1006F000202363822F492582204602F0EEF94046EE
:1007000003F016F841EC100B0221204602F0EAFA41
:100710002949204602F0FAF92849204602F0DDF97D
:1007200038EE688AC8EE287A17EE900A03F000F8CF
:1007300011A3D3E9002303F04FF803F02FFB02F0DD
:10074000F7FF41EC100B0221204602F0CBFA1C49C6
:10075000204602F0DBF9204601F0F8FC00233B6064
:100760003570FFF702FF174B01221A7004B0BDEC81
:10077000028BBDE8F08100BF48E17A14AE47D13F5B
:10078000FC000020F80000201C03002004000020D2
:100790007C0100208001002000007A4400806D442C
:1007A00000408F400C010020ED6A0000016B00004A
:1007B000136B0000166B00002C6B0000316B000007
:1007C0003B6B00000801002010B5104C2378062B6D
:1007D00019D8DFE803F004080C10141A1A00BDE859
:1007E0001040FFF799BDBDE81040FFF7C1BDBDE85F
:1007F0001040FFF7C9BDFFF7A5FE042304E0BDE8E4
:100800001040FFF7BDBE0023237010BD080100207B
:100810001FB50C4C0C4A0D4B4FF0FF318DE80E000C
:1008200020460B4B4022802101F0C0F8094A0A49BA
:10083000204603F0C7FC0949094804B0BDE8104050
:1008400001F0B8BE0C010020801A0600A08601004D
:100850006002002000000020091A0000A40100200E
:10086000FC00002037B54FF4E1313148314C02F043
:1008700027FB314800F060F9304800F05DF90121B4
:100880000C2002F091FD0121082002F08DFD0021D5
:100890000C2002F0B3FD0021082002F0AFFD002182
:1008A000012002F031FD0021022002F02DFD022185
:1008B000052002F079FD012500210B2002F074FDD6
:1008C00000952B463C220221204601F083F920B9F5
:1008D0001B49174802F024F9FEE71A4801F0F8FE18
:1008E00020B11949124802F011F9FEE70221204611
:1008F00000F05CFC204601F05FF9204601F026FC88
:100900004FF47A7002F0AAFC0321204600F0C0FEEA
:100910000C48E582A58201F0DBFEB2EE000A094830
:1009200001F0B3FE074803B0BDE8304001F09EBEC1
:100930001C0300200C01002060020020A401002004
:10094000606B0000FC0000207A6B000038B50025C9
:10095000057329B90B4B0C4A0C48252103F038FCD0
:1009600001600B4951F82220027151F82330837144
:100970009DF8103051F8233043710223C371856014
:1009800038BD00BFFA6B0000BD6B0000086C0000B2
:1009900060770000037B23B94373837303610123F2
:1009A000037370471FB50DF1100E0EE90E009DF890
:1009B0000810026800230129C2F80035039B08D003
:1009C00004D3032907D143F0040304E043F00203F6
:1009D00001E043F00603C2F85435019BC2F8243508
:1009E0000123C2F8003505B05DF804FB10B5FFF730
:1009F000D1FF03688279C3F808254279C3F80C2532
:100A00000279C3F81025034BBDE810400ECBFFF769
:100A1000C9BF00BF8401002010B485B001AC84E8D8
:100A20000E0094E80E0005B05DF8044BFFF7BABF66
:100A300070470368C3F81C15D3F80821002AFBD0BF
:100A4000D3F818050022C3F80821C0B2704700008F
:100A500007B5094B09490A484FF080421A60002245
:100A60009A6002221A710F2300930E220D23FFF7C2
:100A70006DFF03B05DF804FB8401002000300240EC
:100A8000900100202DE9F84380460D46174601EB02
:100A900002090C464C45A4EB050609D0D8F80030F5
:100AA00014F8011B1B68404698470028F2D100E06B
:100AB0003E463046BDE8F8837047203002F048B922
:100AC00038B5437F0D462BB100F16804204602F093
:100AD0004DF908B1002038BD2046294602F01BF927
:100AE000012038BD203002F025B9203002F036B99F
:100AF0002DE9F0411E464FF47A73002583600D4BBB
:100B00004560044640F8203B8846174602F0F8F856
:100B100004F1680002F0F4F89DF8183063769DF84F
:100B20001C30A376C4F8108067612676657720466E
:100B3000BDE8F081786C0000F0B5837E2D4C2E4D21
:100B400054F82320437E54F8233012F0200F14BFB2
:100B50002F464FF0A04702F01F0213F0200F03F0C2
:100B60001F0308BF4FF0A04502F5E07203F5E073E4
:100B7000012140F20C66C17647F8226045F82360F7
:100B800003694FF0CC72C3F824250622C3F8002570
:100B9000827E54F82220C3F80825427E54F8222091
:100BA000C3F80C25027E53B2D2B202F01F055C09D5
:100BB000A9406034114D002B45F8241006DA104B83
:100BC00002F00F02134440221A7606E003F160435C
:100BD00003F56143402283F80023037E01215AB2CA
:100BE00003F01F0301FA03F35209044941F82230CC
:100BF000F0BD00BF607700000003005000E100E09E
:100C0000FCEC00E0C37EABB103690022C3F8002511
:100C1000094A914207D9094A914294BF4FF0806135
:100C20004FF0C86101E04FF0CC710622C3F82415E3
:100C3000C3F80025704700BFA086010090D00300D4
:100C40002DE9F8430646894698461546B2B100F1AB
:100C50002007384602F06AF834690122C4F8889502
:100C60002262C4F83475C4F838552260D4F84C3187
:100C70003BB9D4F82431002BF8D002E01046BDE88F
:100C8000F8830023C4F84C31D4F85C311BB9D4F894
:100C90002431002BF8D00023C4F85C310122B8F1D4
:100CA000000F02D1D4F8243143B16261D4F8043189
:100CB000002BFBD00023C4F8043107E0E261D4F834
:100CC0004831002BFBD00023C4F84831D4F824313C
:100CD00013B10023C4F82431D4F83C053066C0B207
:100CE000BDE8F8830123FFF7ABBF10B5044680F8D9
:100CF000B010683002F01AF80123637710BD2DE9B7
:100D0000F041002305694377012790F8B030C5F81A
:100D1000883500F1680604462F623046C5F8446500
:100D2000884602F015F82369C5F848059F60D3F896
:100D300050211AB9D3F82421002AF8D00022C3F890
:100D40005021304602F004F8236930B1D3F8602115
:100D50001AB9D3F82421002AF8D00022C3F8602160
:100D60000122B8F1000F02D1D3F8241141B15A6128
:100D7000D3F80421002AFBD00022C3F8042107E0A5
:100D8000DA61D3F84821002AFBD00022C3F84821B9
:100D9000D3F8240170B10022C3F82421D3F8C4048D
:100DA000C3F8C404022805D0042814BF042003207B
:100DB000BDE8F081BDE8F0810121FFF7A0BF4369E4
:100DC000D3F8642170B5044682B10022012500F1F8
:100DD0002006C3F864210577304601F0A7FF636958
:100DE0004022C3F83465C3F838251D636369D3F81E
:100DF0006821D2B10025C3F8685104F168060123C7
:100E000063772577304601F091FFD4F8B43003B111
:100E10009847657765693046C5F8446501F098FFE5
:100E20006369C5F8480501225A636369D3F8042150
:100E30005AB10022C3F80421227F32B1D3F83C0515
:100E4000D4F8B830206603B198476369D3F82421F9
:100E500042B10022C3F82421D3F8D024C3F8D0240F
:100E600001225A6170BD00000148FFF7A8BF00BF12
:100E7000600200200148FFF7A2BF00BFA4010020CC
:100E800007B5132314228DE80C004FF040221146C1
:100E900004230848FFF72CFE074A08481E211F2399
:100EA0008DE80A0003231146FFF722FE03B05DF828
:100EB00004FB00BF6002002000300040A4010020BD
:100EC0002DE9F04F85B01F46BDF93830BDF83CA084
:100ED00015469A1A002AB8BF524200927A1A002A7E
:100EE000B8BF524201920C46009A01998A4281464B
:100EF00005DD3A461F46134622462C461546BC429F
:100F000005DD2A461D46134622463C4617465A1B17
:100F1000002AC4EB0708B8BF52421FFA88F80392B0
:100F200002260FFA88F292FBF6F64FF6FF729D4208
:100F3000B8BF0122B6B20292BC421FDC019A009BEC
:100F40009342D9F80030C8BF2246D3F810B0C8BFCA
:100F500029465346DCBF2A4621464846D847039BCC
:100F6000F61AB3B29EB2320405D5029A08EB030614
:100F700015442DB2B6B2013424B2DDE705B0BDE8A8
:100F8000F08F10B40468A468A4465DF8044B604771
:100F900030B40468BDF808500295246BA44630BCF8
:100FA000604730B40468BDF808500295646BA446ED
:100FB00030BC604770B40468BDF90C50BDF81060D7
:100FC00004960395A46BA44670BC604770472DE956
:100FD000F3411C460368BDF82080DB6805461646D1
:100FE000013C34440F4624B298472B68CDF8048066
:100FF00000941C6A28463B4632463946A0472B6877
:101000005B6A284602B0BDE8F04118472DE9F3417C
:101010001D460368BDF82080DB68044617460E466F
:1010200098478DE8800122686B1E3344156A20467C
:101030001BB23A463146A84723685B6A204602B095
:10104000BDE8F04118472DE9F3471E460368BDF996
:101050002880DB68BDF82C900C460546174698475B
:101060002644B4422A680BDACDF80090D2F818A0D2
:10107000214643463A4628460134D04724B2F0E799
:10108000536A284602B0BDE8F047184713B5B0F9D7
:101090000E200468019100920022B0F90C30A46B7C
:1010A0001146A04702B010BD2DE9F7439942904682
:1010B00007460E461C46BDF92850BDF82C90026824
:1010C0000BD1A845C2BF4346A8461D466B1CCDF8B0
:1010D0002890C8EB0303146B0CE0A84513D1994288
:1010E000C4BF0B462646CDF82890C8BF1C46631CDB
:1010F000546B9B1B1BB2424631463846A44603B094
:10110000BDE8F0436047D36898473B688DE820020C
:1011100038461D6A424623463146A8473B685B6A0B
:10112000384603B0BDE8F04318472DE9F3471E46A3
:101130000368BDF82C80DB68BDF9289004460D4695
:10114000174698472368CDF80080D3F81CA03A468C
:10115000334629462046D0472368CDF8008009F160
:10116000FF323A44D3F81CA029463346204612B237
:10117000D0472368CDF80080D3F818A03A464B46F4
:1011800029462046D0472368CDF80080711E2944A7
:1011900020469D693A464B4609B2A84723685B6AD8
:1011A000204602B0BDE8F0471847704701F0030140
:1011B000012981760389428904D0032902D08381E1
:1011C000C28170478281C3817047000030B50181C0
:1011D00000240A4D42818181C2814FF6FF710122B4
:1011E0004460056084760482448242760276C1823D
:1011F0008182C2760477046230BD00BF986C000023
:101200002DE9F04F89B09A46BDF94C300393BDF8F3
:101210005030049303680292DB680191BDF9489055
:10122000002605469847082300963446079309F19F
:10123000070292FBF3FB009A029B03991344BDF94A
:10124000002091429BB229DD0AEB06021BB24FF04F
:101250000008059206931FFA88F10BB24B4518DA85
:101260004A0703BF079A93FBF2F3059A64000CBF89
:10127000D45CE4B2230609D5019B069A19442B6875
:101280001B6909B21F462846049BB84708F10108AC
:10129000E1E7009B013300935E44CCE72B685B6A77
:1012A000284609B0BDE8F04F184770B4BDF90C40AE
:1012B000BDF91050BDF8146005960495039470BCF8
:1012C000FFF79EBF2DE9F04F91B09046026A03915F
:1012D0001E46BDF8683002930446BDF86C909DF838
:1012E00070709DF87450002A40F0B280B0F90C3054
:1012F0008B4240F33F81B0F90E30434540F33A81D1
:10130000062313FB0713002B40F3348108EBC503BE
:10131000002B40F32F81037F1BB9AF2E84BF013612
:10132000F6B223682046DB6898470523099300231B
:1013300006933BB20C939DF918309049052212FB9D
:1013400006324FF0000A8A5C0592BAB20792BDF8E5
:101350000C2004920499079A03FB021292B211FA2C
:1013600083F308921BB208220A920B93059BDA07BB
:1013700011D5012F4FFA8AF207D1012D05D123682B
:101380004244D3F810B0029B13E002992368019104
:1013900002FB058217E0029B4B451DD0012F4FFA3F
:1013A0008AF20BD1012D09D123684244D3F810B041
:1013B0004B4612B20B992046D8470DE02368CDF872
:1013C000049002FB05820095D3F814B0BDF92010FB
:1013D0000C9B12B22046D847059B5B0805930A9BDD
:1013E000013B0AF1010A13F0FF035FFA8AFA0A933C
:1013F000BCD1069B0133DBB20693099B013B13F082
:10140000FF03099397D1029B4B4500F0AC80012F5D
:1014100023680CD1012D0AD10499CDF80090053133
:101420009D694246082309B22046A8479BE0079AD7
:10143000CDF8049002EB8201049AED000A441146B3
:1014400000955D6942463B4609B22046A8478AE0BE
:10145000137A516812680D92F61AF6B201EBC603C0
:1014600031F8362004929A780792DA780A92012F9E
:101470005A7908929E7901D8012D07D99DF920301B
:101480009BB2069373B29BB2059302E000230593CF
:10149000069323682046DB6898471FFA88F34FF0CD
:1014A0000009099343FA86F3CB46CA460F930A9B79
:1014B0005FFA89F29A4256D2059B09994B4413FB75
:1014C00005F30B440F999BB28A180C9300265B46D8
:1014D0000E92079A96423FD25A1CD2B25B070B92E9
:1014E00007D1049B04990D9A01339BB212F801A015
:1014F00004931AF0800F27D0012F11D1012D0FD1A5
:101500009DF82020039B43FA82F12368BDF938201F
:10151000D3F81080029B314409B22046C04713E043
:10152000BDF81830029A019206FA83F1039B0095E8
:1015300011FB07F119442368BDF93020D3F814805A
:1015400009B23B462046C0474FEA4A0A01365FFAD5
:101550008AFAF6B20B9BBCE7079B9B445FFA8BFBB6
:1015600009F10109A3E723685B6A204611B0BDE8D1
:10157000F04F184711B0BDE8F08F00BFE06C0000DD
:10158000F0B5026A85B004460B46002A2FD10A291D
:1015900005D10282438A427E03EBC20330E00D296B
:1015A0006AD0C17E457E007E69B1B4F91060062123
:1015B00011FB0061B4F90C60B142C1BF2282628AA2
:1015C00002EBC50262820290E08A0190A08AB4F91F
:1015D00012200090B4F9101003952046FFF772FE18
:1015E000237E228A03EB430302EB430343E00A29F1
:1015F00008D100230382417E127B438A01FB023320
:10160000638239E00D2937D0157AA94234D3917A13
:10161000994231D351685D1BEDB201EBC505A97844
:1016200021B3E87810B3E77E667E207E8FB195F90E
:1016300005703944B4F9107000FB0171B4F90C70F5
:10164000B94206DD00212182127B618A06FB02126B
:1016500062820290E08A0190A08A0090B4F9122080
:10166000B4F9101003962046FFF72CFE2979227E4C
:10167000238A01FB02332382012005B0F0BD00293B
:1016800008BF0121002A08BF012201764276704777
:101690000A46FFF7F4BF2DE9F74F056ADDF830C0C1
:1016A000DDF834E0DDF83890DDF83C80002D71D0B5
:1016B0000A2907D100211180407E297B1A8800FB6E
:1016C00001226EE00D2900F0B2802C7AA142C0F018
:1016D000AE80AE7A8E42C0F0AA80091B6C68C77ECD
:1016E000C9B204EBC101CE7800960E798C780196D0
:1016F0008E7991F905109FB1B2F900A090F818B059
:101700000F190BFB07A7B0F90CA0574508DD002700
:101710001780477E2D7BB3F800A007FB05A51D8031
:10172000057E1788407E1B8801FB057189B276B261
:101730008FB206FB003304FB0511009C9BB21FFA1D
:1017400083FA04FB0033BCF9004038B28442C8BFBE
:10175000ACF80070BEF900400FFA8AF08442C8BFAE
:10176000AEF800A00139B9F9004089B208B284424C
:10177000B8BFA9F80010013B9BB2B8F9000019B23C
:101780008842B8BFA8F800301388019901FB0535DD
:1017900015804CE00A2906D11580417E1A8802EB9B
:1017A000C1021A8043E00D2941D0C17E79B1067E85
:1017B000B2F90010062414FB0611B0F90C40A14246
:1017C00005DD1580447E198801EBC4011980057E72
:1017D000B2F90040062111FB0544457EB3F9001023
:1017E00001EBC501B9F90050013CAC42C8BFA9F8F2
:1017F0000040B8F900400139A142C8BFA8F8001064
:101800001188BCF900500CB2A542C8BFACF800105A
:101810001B88BEF9004019B28C42C8BFAEF8003038
:10182000037E118803EB430301EB4303138003B0F2
:10183000BDE8F08F2DE9F04788B08846109F119DD4
:10184000129E139C3A8047F6FF712B80ADF814303E
:10185000ADF818100023ADF81A104FF6FF71238071
:101860008146ADF81620ADF81C10ADF81E1033807F
:101870000DF11E0A18F8011B79B107AB02930DF1A7
:101880001A03019306AB0093CDF80CA005AB0DF144
:1018900016024846FFF7FFFEECE7BDF81C30BDF826
:1018A000182018B211B28842A1BF01339B1A3A80A6
:1018B0003380BDF81A20BDF81E3011B218B288422C
:1018C000A1BF01339B1A2A80238008B0BDE8F087AE
:1018D000F0B58C68DDF814E024B10968BDE8F0408B
:1018E000FFF7A8BFF0BD002930B55DDBB0F90C40B3
:1018F0008C4259DD002A57DBB0F90E40944200DCDF
:1019000030BD847E022C03D10489013C611A06E0BB
:10191000032C3DD1514089B24A4092B25140448992
:10192000013CA21A09B212B2012B03D010D3022B30
:101930001ED030BD0589082492FBF4F414FB051178
:10194000C46A02F00702605C93400343635430BDF5
:101950000489082392FBF3F313FB0411C46A02F019
:1019600007020120635C00FA02F223EA02020DE0A2
:101970000489082392FBF3F313FB0411C46A02F0F9
:1019800007020120635C00FA02F25A40625430BD43
:10199000012CC9D1514089B24A40048912B2013C9C
:1019A0005140611A09B2BFE730BD000038B50446A6
:1019B0001D46FFF70BFC124B2360124B0022954291
:1019C00008BF1D46FF2384F8333084F8343084F890
:1019D000353084F836309DF9103084F83730059B67
:1019E000A365069BE3654FF080436366022384F89A
:1019F00068306262A562E262E266204638BD00BFDE
:101A00000072000060020020044B10B50446036021
:101A1000C06A08B102F062FC204610BD00720000EE
:101A2000F8B50446806A0E4690B194F83010FFF77E
:101A30005CF9A06A036800211B689847A06A0368E4
:101A400031461B689847A06ABDE8F840FFF7B4B973
:101A5000226C206D136823EA0003606A136018B1DA
:101A6000BDE8F840FEF7E5BFE36B08208025A26BD8
:101A7000A16C17682E4214BF394327EA0101116097
:101A80001968E26C0A431A601A68E16C013822EAAC
:101A900001021A604FEA5505E9D1F8BD38B5044690
:101AA000806A0D4618B1A16DFFF7ACF80CE0606AD2
:101AB00020B104F164030ECBFEF7AEFF626C616DE2
:101AC000136823EA01031360002D204614BFA721E9
:101AD000A621FFF7A5FFA06A20B1E16DBDE838405F
:101AE000FFF790B8626C636D1168606A0B43136016
:101AF00018B1BDE83840FEF79BBF38BDF8B50446C5
:101B0000806A0D468F1848B394F83010FFF7EDF84F
:101B1000A06A036800211B6898470126BD4218D0BF
:101B20003E2E0DD9A06AFFF747F994F83010A06A4D
:101B3000FFF7DBF8A06A036800211B6898470126BD
:101B4000A06A15F8011B036801361B689847B6B2F6
:101B5000E4E7A06ABDE8F840FFF72EB9226C216DDA
:101B6000136823EA01031360BD4224D0606A15F8AC
:101B7000011B10B1FEF75DFFF6E7E36B08264FF09F
:101B8000800EA26BA06CD2F800C011EA0E0F14BF39
:101B90004CEA00002CEA000010601868E26C024376
:101BA0001A601A68E06C013E22EA00021A604FEAED
:101BB0005E0EE6D1D8E7F8BDB0F90A300822073347
:101BC00093FBF2F3B0F90820C06A5A43002102F0F7
:101BD00098BB00002DE9F0431E4685B0C36A9DF80E
:101BE000307004468846154673B9B0F90A300820AB
:101BF000073393FBF0F3B4F90800584302F066FB97
:101C0000E062002800F058812046FFF7D5FFB4F9C4
:101C10000A20B4F90830202A4FF002010EDD523BB1
:101C2000403A4FF0400992FBF1F24FF0010C93FB68
:101C3000F1F152238DE80812A14B0CE0733B203ADE
:101C4000732092FBF1F24FF0010E93FBF1F1202390
:101C50008DE809409B4B204612B209B2FFF725FBE5
:101C6000A06A84F8318080B135B9B4F90A30202BEC
:101C700014BF3D253C2500E0EDB284F83050002F24
:101C800000F01681FEF758FF6FE0012194F935004E
:101C9000DFF84C92DFF84C8201F086FB012194F9C9
:101CA000360001F081FB94F93530606A59F8233031
:101CB000012513F0200F03F01F0305FA03F323653A
:101CC00094F9363059F823300CBF4FF0A042424609
:101CD00002F2045213F0200F03F01F03226405FAEE
:101CE00003F30CBF4FF0A0424246636502F2045179
:101CF0006164D2F804150B43C2F8043518B1A7B3D8
:101D0000FEF774FE31E0294694F9330001F04CFBF4
:101D1000294694F9340001F047FB94F9333059F81F
:101D2000233013F0200F03F01F0305FA03F3A3641D
:101D300094F9343059F823300CBF4FF0A04242469A
:101D400013F0200F03F01F0308BF4FF0A0489D4081
:101D5000E564D8F8043502F20452A26323EA0505CB
:101D600008F20452E263C8F80455DEB194F9370072
:101D7000002817DB012101F017FB012194F937003E
:101D800001F03CFB012001F069FA002194F93700D1
:101D900001F034FB0A2001F061FA012194F93700C7
:101DA00001F02CFBA06A18B1A16DFEF72BFF0CE02F
:101DB000606A20B104F164030ECBFEF72DFE626C65
:101DC000616D136823EA0103136004223E49204633
:101DD000FFF794FEA17A0139C9B22046FFF720FE31
:101DE0003A4904222046FFF789FE94F93130012B4D
:101DF00014BF142110212046FFF712FE042234499B
:101E00002046FFF77BFE8F2384F86030314AA368B9
:101E1000934218D002F50012934209D194F931305F
:101E2000012B14BFCF239F2384F8603012250BE0D1
:101E3000294A934207D194F93130012B14BFAF23C3
:101E4000102384F860300225DA212046FFF7E8FDF0
:101E500029462046FFF7E4FD81212046FFF7E0FDFB
:101E600094F860102046FFF7DBFDD9212046FFF7EC
:101E7000D7FD94F93130012B14BFF12122212046E6
:101E8000FFF7CEFD204606221449FFF737FEA06A71
:101E900018B1E16DFEF7B6FE08E0626C636D116883
:101EA000606A0B43136008B1FEF7C2FD012003E036
:101EB000002E3FF479AF59E705B0BDE8F08300BFCD
:101EC0003A74000048720000287400002C7400006E
:101ED00030740000800020006000100034740000A6
:101EE0006077000000030050F0B5002ABDF81460D0
:101EF00046DBB0F90A40944242DD0029B8BF5B18C6
:101F00000489BCBF1BB20021CD1827B2BD42C4BF9B
:101F1000631A1BB2002B33DD0825C06A92FBF5F56E
:101F2000ADB214FB0511084402F00702012101FAC9
:101F300002F28E42D2B203D00CD3022E16D0F0BDE4
:101F4000013B1BB25D1C1BD010F8011B114300F8B4
:101F5000011CF5E7D243D2B2013B1BB25C1C0FD08F
:101F600010F8011B114000F8011CF5E7013B1BB202
:101F7000591C05D010F8011B514000F8011CF5E771
:101F8000F0BD0000F0B50F1EBDF81450C0F28B80FC
:101F900001890FFA81FE774580F28580002AB8BF5B
:101FA0009B184489BCBF1BB20022D6180FFA84FCD0
:101FB0006645C4BFA31A1BB2002B74DDD2B2D4088D
:101FC000C66A11FB047112F00702DBB206EB0104D2
:101FD0002BD0C2F10802D2B2334F9342BF5C0DD274
:101FE000C3EB020C4FF0FF0E4EFA0CFE012D0EEA71
:101FF000070705D00AD3022D55D10CE0012D04D1DD
:1020000016F801E047EA0E0709E048D216F801E0A9
:102010002EEA070703E016F801E087EA0E0793426D
:10202000775440D3B0F908100C449B1ADBB2072B4D
:102030001CD9022D0BD11A462178C9432170083AC8
:10204000B0F90810D2B2072A0C44F5D81EE0002DD2
:1020500014BFFF2600261A462670083AB0F9081069
:10206000D2B2072A0C44F7D803F00703DBB10F4ABA
:10207000012DD35C03D005D3022D14D10BE02278BF
:1020800013430AE0227822EA030306E013F0070371
:1020900009D0064AD35C227853402370F0BD022D4C
:1020A000B9D07444C1E7F0BDED710000E0710000EB
:1020B00070B4847EBDF80C60022C08D0032C0FD0C5
:1020C000012C18D10589013DAC1A24B20DE04489D8
:1020D000013CA41A22B20489E41A611A09B20AE086
:1020E00014464289D21A511A09B203960A46214669
:1020F00070BCFFF747BF039670BCFFF7F5BE70B426
:10210000847EBDF80C60022C08D0032C0FD0012C6B
:1021100018D10589ED1AAC1A24B20DE00489013CEE
:10212000611A4489E41AA41A09B222B20AE01446D8
:102130004289013A511A09B203960A46214670BCF7
:10214000FFF7D2BE039670BCFFF71CBFF8B504467C
:10215000806A18B1A16DFEF755FD0CE0606A20B1F0
:1021600004F164030ECBFEF757FC626C616D1368DB
:1021700023EA0103136005223F492046FFF7BEFC16
:10218000217A01392046C9B2FFF74AFCB4F90A5056
:10219000E66AA06A0823073595FBF3F5238913FB4C
:1021A00005F516FA85F540B394F83010FEF79DFD5D
:1021B000A06A036840211B6898470127AE4218D0E7
:1021C0003E2F0DD9A06AFEF7F7FD94F83010A06AF3
:1021D000FEF78BFDA06A036840211B689847012722
:1021E000A06A16F8011B036801371B689847BFB245
:1021F000E4E7A06AFEF7E0FD2BE0226C236D116896
:102200000B431360AE4224D0606A16F8011B10B174
:10221000FEF70FFCF6E7E36B08274FF0800EA26B8A
:10222000A06CD2F800C011EA0E0F14BF4CEA0000F7
:102230002CEA000010601868E26C02431A601A6809
:10224000E06C013F22EA00021A604FEA5E0EE6D11E
:10225000D8E7A06A20B1E16DBDE8F840FEF7D2BC36
:10226000626C636D1168606A0B43136018B1BDE85E
:10227000F840FEF7DDBBF8BDE871000008B50123AA
:1022800000F07AFAB0FA80F0400908BD13B502AC4C
:10229000012304F8012D224600F04EFAB0FA80F036
:1022A000400902B010BD37B50D460DF107022021DF
:1022B0000446FFF7E3FF68B19DF8072022F0010212
:1022C0002A43202120468DF80720FFF7DFFF00304A
:1022D00018BF012003B030BD37B50D460DF1070220
:1022E00020210446FFF7CAFF68B19DF8072022F0BD
:1022F00002022A43202120468DF80720FFF7C6FF5F
:10230000003018BF012003B030BD37B50D460DF1C8
:10231000070220210446FFF7B1FF68B19DF80720AE
:1023200022F004022A43202120468DF80720FFF7DF
:10233000ADFF003018BF012003B030BD10B50A4614
:102340000C462021FFF79AFF20B1237803F0080301
:102350002370012010BD37B50D460DF10702202175
:102360000446FFF78BFF68B19DF8072002F00F02CB
:102370002A43202120468DF80720FFF787FF0030F1
:1023800018BF012003B030BD10B50A460C4623210A
:10239000FFF774FF20B1237803F0080323700120B6
:1023A00010BD37B50D460DF1070223210446FFF796
:1023B00065FF68B19DF8072022F030022A432321EF
:1023C00020468DF80720FFF761FF003018BF01207D
:1023D00003B030BD10B50A460C462321FFF74EFF6F
:1023E00020B1237803F030032370012010BD37B5EE
:1023F0000D460DF1070223210446FFF73FFF68B1A8
:102400009DF8072002F07F022A43232120468DF801
:102410000720FFF73BFF003018BF012003B030BD9D
:1024200037B50D460DF107022E210446FFF726FFB2
:1024300068B19DF8072002F03F022A432E21204672
:102440008DF80720FFF722FF003018BF012003B0EE
:1024500030BD70B506464D1C28246A1E2146304604
:10246000FFF70CFF78B1611C2A46C9B23046FFF76E
:1024700005FF38B10234E4B22E2C05F10205ECD18F
:10248000012000E070BD70BD2DE9F04385B00D4620
:102490000DF106018046FFF777FF08B9002084E0C0
:1024A0000DF105014046FFF749FF0028F6D09DF8E1
:1024B0000540082C06D19DF80630002BEED12646AB
:1024C00002270BE0002CE9D19DF8063023B1082B40
:1024D000E4D10426274601E0062601270DF1070175
:1024E0004046FFF777FF0028D8D09DF80740202C02
:1024F00006D0302C06D0A4F110035C425C4102E00F
:10250000022400E0032402A94046FFF7A2FF0028AE
:10251000C4D0274BBDF9080004EB870403EBC402C9
:1025200053F83470546830414FEAE07900FB04F30B
:1025300007FB0933A0FB070110F5FA7019444FF4AB
:102540007A724FF0000341F1000101F077FC28603E
:10255000BDF90A00304100FB04F34FEAE07907FBC4
:102560000933A0FB070110F5FA7019444FF47A7291
:102570004FF0000341F1000101F060FC6860BDF91B
:102580000C003041C317444307FB0344A0FB070181
:1025900010F5FA7021444FF47A724FF0000341F1C4
:1025A000000101F04BFCA860012005B0BDE8F083FC
:1025B00000770000322202710022016042717047F0
:1025C0001FB50C4601A9FFF75FFF38B1019B2360DF
:1025D000029B6360039BA360002000E0012004B025
:1025E00010BD0000F7EE007AB4EEE70AF1EE10FA43
:1025F00008B525D9F2EE047AB4EEE70AF1EE10FA46
:1026000020D9F3EE097AB4EEE70AF1EE10FA1BD9FD
:10261000DFED137AB4EEE70AF1EE10FA16D9DFED2A
:10262000117AB4EEE70AF1EE10FA11D9DFED0E7A65
:10263000B4EEE70AF1EE10FA94BF6021702108E0D1
:10264000102106E0202104E0302102E0402100E0DA
:102650005021FFF780FEB0FA80F0400908BD00BFAE
:10266000000048420000C8420000484310B54379CA
:10267000012B044607D090ED020AFFF7B3FF0128B3
:1026800002D001236371002010BDF0EE007AB4EE99
:10269000E70AF1EE10FA08B510D9F1EE007AB4EEBF
:1026A000E70AF1EE10FA0BD9F2EE007AB4EEE70A7F
:1026B000F1EE10FA94BF2021302102E0002100E069
:1026C0001021FFF76EFEB0FA80F0400908BD00004F
:1026D00010B580210446FFF78AFE08B9012010BD1D
:1026E00000212046FFF79CFE0028F7D0002120465D
:1026F000FFF731FE0028F1D0B0EE000A2046FFF7C8
:10270000C4FF0128EAD001212046FFF7CCFD0028B4
:10271000E4D002212046FFF7DFFD0028DED00421AF
:102720002046FFF7F2FD0028D8D00020014B607151
:10273000A36010BD0000C842F8B50D4601790446FB
:102740004908006816461F46FEF7CFFA206803685E
:1027500029461B6898473546AB1B9F4206DD20681B
:1027600015F8011B03681B689847F5E701212068ED
:10277000FEF7C5FA0020F8BDF8B50F46017904460A
:102780004908006815461E46FEF7AFFA2068036840
:1027900039461B68984700212068FEF7B0FA217976
:1027A0002068F2B24908FEF79DFA013D20680368EF
:1027B0009B68984730B120680368DB68984705F844
:1027C000010FF3E7F8BD0000D0B52DED048BB0EE9E
:1027D000409AF0EE609A294C8AB000F053F894F9D0
:1027E0000030B0EE408AF0EE608A01330FD0B0EED8
:1027F000490AF0EE690A00F015F940B100260027F9
:1028000051EC190B32463B4601F058FA38B9B0EE9C
:10281000480AF0EE680A0AB0BDEC048BD0BD184B34
:1028200024780193012200238DED049B8DED029B02
:10283000009208936CB9CDE90667684600F020F96C
:1028400088B1089BA3B99DED060B0AB0BDEC048BC3
:10285000D0BD32463B463046394601F0E7F8022CFF
:10286000CDE90601E9D101F0DFFC21230360E8E7AF
:1028700001F0DAFC089B0360E5E700BF08000020D8
:10288000EC7700002DE9F041654955EC104B0E4600
:102890002940B14200F09780002D2B4610EE102AFF
:1028A00074DD2F157FD0A7F2FF37C3F31303F907A9
:1028B00043F4801365D403EBD27100260B447F10E0
:1028C0005200B64616204FF400110EEB01049C4254
:1028D0004FEAD2754FEA420203DC1B1B04EB010EE8
:1028E0000E44013805EB43034FEA5101EDD1844614
:1028F00020244FF0004109E020D003EBD275013CC9
:102900004FEA51012B444FEA420220D09E4501EB91
:102910000C05F1DA002D05EB010C09DBF0469542C0
:10292000CEEB030300D9013B521B0844C646E4E743
:10293000BCF1000FF2DB0EF10108F0E795421ED862
:10294000002D05EB010C50DB98460023ECE7134308
:1029500004D0421C4DD000F001031844400871100F
:10296000F30701F17F5101F5001148BF40F000402D
:1029700001EB0753024643EC102BBDE8F081734690
:10298000BBE75B0003EBD273520094E725F00041F4
:10299000214328D0ADBB2F46D30A153F5205002B4B
:1029A000FAD0DD0228D4002100E001465B00DC0201
:1029B00001F10100F9D5C0F1200422FA04F4234307
:1029C0007F1A82406FE710EE102A2B4610EE100A95
:1029D000294600F001FF22462B4600F04BFD41EC5A
:1029E000100BBDE8F081BDE8F081BCF1000FABDB5E
:1029F000A1E701362046B2E720244FF0FF31002046
:102A0000DBE710EE102A2B462046294600F030FD69
:102A100002460B4601F00AF841EC100BBDE8F081CC
:102A20000000F07F53EC102B33F0004110B408D0BD
:102A30001148A3F58014844208D804205DF8044BA3
:102A400070471AB902205DF8044B704703F1FF4349
:102A5000094803F5E0038342EFD9B1F5801F01D2A5
:102A60000320EBE7054B994201D00020E6E7B2FADC
:102A700082F04009E2E700BFFFFFDF7F0000F07F48
:102A8000002070472DE9F04106460D4601EB020893
:102A90000C464445A4EB050707D0336814F8011B26
:102AA0001B68304698470028F3D13846BDE8F081CE
:102AB00070B505460C46084649B102F085FA2B6808
:102AC0000246214628465B68BDE87040184770BD45
:102AD00003688A685B680968184708B5FFF7E8FF6C
:102AE00008BD03681B68184708B50249FFF7E0FFF7
:102AF00008BD00BFF477000038B50546FFF7E8FFD2
:102B000004462846FFF7F0FF204438BD38B5054697
:102B1000FFF7CEFF04462846FFF7E6FF204438BD06
:102B2000FFF7F4BFF0B58BB000238DF82430012AF5
:102B300098BF0A220DF12305B1FBF2F402FB141633
:102B4000F3B2092E94BF30333733DBB22F46214620
:102B500005F80139002CEFD13946FFF7A9FF0BB07A
:102B6000F0BD2DE9F04107460E4615462AB9036827
:102B7000C9B21B68BDE8F04118470A2A02D10029F2
:102B800001DA04E0D2B2BDE8F041FFF7CBBF2D215E
:102B9000FFF7A7FF2A46044671423846FFF7C2FFF7
:102BA0002044BDE8F08100002DE9F843804657EC51
:102BB000106B0D46FFF736FF08B9424910E047ECAD
:102BC000106BFFF72FFF012801D13F4908E04FF0BC
:102BD00060423E4B3046394601F08EF828B13C4900
:102BE0004046FFF765FFBDE8F8834FF06042394B80
:102BF0003046394601F062F80028F0D10022002367
:102C00003046394601F05AF840B12D214046FFF7D1
:102C100068FF07F1004304461F4600E004462E49C2
:102C20004FF0000900205FFA89F39D4206D9002287
:102C30002A4B00F0FBFE09F10109F4E732463B465E
:102C400000F018FC0F46064601F088F80A220146FB
:102C500081464046FFF766FF04447DB3484600F0D6
:102C600045FD02460B463046394600F001FC06465B
:102C70000F4640461A49FFF71BFF0444174B00223A
:102C80003046394600F0A8FD0F46064601F03EF8F2
:102C90000A22014681464046FFF763FF0444484646
:102CA00000F034FD02460B463046394600F0E0FBAA
:102CB000013D15F0FF0506460F46DFD12046BDE871
:102CC000F88300BFF7770000FB770000FFFFEF41BC
:102CD000FF770000FFFFEFC10000E03F000024404D
:102CE000BB6B0000C9B2FFF75FBF38B5C9B205467C
:102CF000FFF75AFF04462846FFF7F6FE204438BD8A
:102D000010B540220446002101F0FBFA00232364A1
:102D10006364204610BD026C10B5531C446C03F074
:102D20003F039C421CBF8154036410BD0023036415
:102D300043647047436C026C93421FBFC25C013313
:102D400003F03F03436414BF10464FF0FF30704759
:102D5000036C406C181A48BF40307047436C026CDB
:102D6000934214BFC05C4FF0FF307047036C406C5F
:102D7000013303F03F031B1A5842584170470000CB
:102D80000649074A074B9B1A03DD043BC858D0503D
:102D9000FBDC00F013F8FDF785FA0000487A00002C
:102DA00000000020DC000020FEE7FEE7FEE7FEE773
:102DB000FEE7FEE7FEE7FEE7FEE7FEE73A4B1A68AE
:102DC0000D2A1FD01B680D2B26D0374B1B680D2BEF
:102DD00009D14FF08043D3F80024D20703D56FF018
:102DE0000102C3F80024314AD2F8883043F470035A
:102DF000C2F88830BFF34F8FBFF36F8F2C4B2D4A33
:102E00001A6070474FF080420021C2F80C11C2F8DE
:102E10001011C2F83815D5E74FF08052264BD2F882
:102E20000414C3F82015D2F80814C3F82415D2F8F6
:102E30000C14C3F82815D2F81014C3F82C15D2F8C6
:102E40001414C3F83015D2F81814C3F83415D2F896
:102E50001C14C3F84015D2F82014C3F84415D2F856
:102E60002414C3F84815D2F82814C3F84C15D2F826
:102E70002C14C3F85015D2F83014C3F85415D2F8F6
:102E80003414C3F86015D2F83814C3F86415D2F8B6
:102E90003C14C3F86815D2F84014C3F86C15D2F886
:102EA0004424C3F8702590E73001001000ED00E0E5
:102EB0000C0000200090D00300C0004001207047AB
:102EC00003681322DB69184770470369C3F81C15B0
:102ED000D3F81C21002AFBD00022C3F81C210120BA
:102EE0007047000090F85C305AB2520910B40121CA
:102EF00020320F4C03F01F0301FA03F344F8223091
:102F000003695DF8044B0422C3F8082300225960CA
:102F1000D960C3F800254FF0FF32C3F80C251430F8
:102F2000C3F81425C3F80825C3F81025FFF7FEBE23
:102F300000E100E01430FFF70BBF1430FFF70EBFC5
:102F40001430FFF7F7BE0000026990F85E3030B52C
:102F5000C2F80C3590F85D30C2F8143590F8613045
:102F6000012B01BF90F85F40C2F8104590F8604017
:102F7000C2F8084518BF0023B1F5966FC2F86C354A
:102F80002ED9B1F5166F2ED9B1F5965F2ED9B1F5C0
:102F9000165F2DD9B1F5615F2CD9B1F5964F2BD9BC
:102FA000B1F5E14F2AD9B1F5164F29D9B1F5614FE5
:102FB00029D9B1F5963F29D9B1F5E13F28D9B1F525
:102FC000613F28D9344B994228D9B1F5E12F28D94E
:102FD000B1F5612F8CBF4FF080534FF0706322E04A
:102FE0004FF49E231FE04FF41D231CE02B4B1AE0EF
:102FF0002B4B18E02B4B16E02B4B14E02B4B12E025
:103000004FF41D030FE04FF46B030CE0284B0AE074
:103010004FF0EB7307E04FF06C7304E04FF0806308
:1030200001E04FF0E863C2F8243500210423C2F820
:103030000035C2F80811C2F81C110121116091601D
:10304000C2F8043390F85C2053B2D2B202F01F05EC
:103050005C09A9406034174D002B45F8241006DAAE
:10306000154B02F00F02134460221A7606E003F1BA
:10307000604303F56143602283F8002390F85C30DD
:1030800001215AB203F01F0301FA03F3520909495F
:1030900041F8223030BD00BF90D0030000B01300D3
:1030A0000050270000F03A0000A04E0000C075005C
:1030B00000903A0100E100E0FCEC00E02DE9F04175
:1030C0001E464FF47A73002583600E4B456004461C
:1030D00040F8143B17468846FFF712FE0A4AC4F828
:1030E000108052F8263084F85D309DF8183084F84E
:1030F0005C7052F8233084F85E3084F861502046CA
:10310000BDE8F0810C780000607700000369D3F817
:10311000082110B504464AB1D3F818151430C9B2C5
:10312000FFF7F9FD23690022C3F8082110BD000054
:103130000148FFF7EBBF00BF1C03002007B52223A7
:1031400000930222212303490348FFF7B7FF03B08E
:103150005DF804FB002000401C03002010B504466D
:10316000006801F0BBF8204610BD10B504460068A9
:1031700008B101F0B3F800232360A360636010BDC1
:1031800038B504460D460068013101F0FDFE10B16E
:1031900084E82100012038BD036810B5044613B14E
:1031A00043688B4207D22046FFF7EAFF20B1A368AD
:1031B0000BB922681370012010BD70B50E46114680
:1031C00004461546FFF7E8FF18B92046FFF7CDFF84
:1031D00004E0A5603146206801F0EEFE204670BD97
:1031E00038B5002304460360436083600D4639B15F
:1031F000084601F0E9FE294602462046FFF7DDFFBA
:10320000204638BD38B505460C4641B1084601F0A8
:10321000DBFE214602462846FFF7CFFF01E0FFF71D
:10322000A4FF284638BDFFF7EDBFFEE7094B19683C
:10323000094B30B5D3F804050A060B0A02434FF4D4
:103240007A71A2FB014501FB0355E00B40EA4540C2
:1032500030BD00BF800300200010014038B5044697
:1032600048B1FFF7E3FF054600F01AF8FFF7DEFF6D
:10327000401B8442F8D838BD074B0022C3F8042114
:1032800082B0D3F80431054A0193019B13680133DE
:10329000DBB2136002B070470010014080030020D1
:1032A0007047704708B500F011F8FFF7FAFF0120EA
:1032B000FFF7D4FFFDF7D6FA034CFDF785FA002C93
:1032C000FBD0AFF30080F8E7000000000D4BE022D8
:1032D00083F811234FF40032C3F880211A604FF0B5
:1032E000804302220121C3F81825996003F5883331
:1032F0000020C3F80805C3F80423C3F84423196069
:10330000704700BF00E100E0222830B541D8214BD2
:10331000214C53F82000002254F822305D1C33D198
:103320001D4B1E4C43F822001D4D1E4B246853F8C4
:1033300022306FEA41416FEA514125F81210012114
:1033400001FA04F4C3F86005013CC3F8640505EB19
:103350004202C3F86805C3F86C050020C3F80015E5
:10336000C3F80C05C3F80405C3F80845C3F81405F1
:10337000C3F81005C3F82025C3F82415C3F8281591
:10338000C3F82C05996030BD9842C9D00132042A97
:10339000C2D130BD60770000100000202000002066
:1033A0008403002034780000222821D8114B124ACF
:1033B00053F8203013F0200F08BF4FF0A04203F065
:1033C0001F03032914D8DFE801F0020E060A03F5F3
:1033D000E07300210AE003F5E0730C2106E003F539
:1033E000E073042102E003F5E073032142F82310A7
:1033F000704700BF6077000000030050222813D8F8
:103400000A4B53F820200A4B12F0200F02F01F0045
:103410004FF0010208BF4FF0A043824011B9C3F83A
:103420000C257047C3F80825704700BF607700007F
:1034300000030050222811D8094B53F82000094BF3
:1034400010F0200F08BF4FF0A04300F01F00D3F88A
:10345000103523FA00F000F001007047002070479B
:10346000607700000003005081F0004102E000BFDF
:1034700083F0004330B54FEA41044FEA430594EA34
:10348000050F08BF90EA020F1FBF54EA000C55EA6F
:10349000020C7FEA645C7FEA655C00F0E2804FEA40
:1034A0005454D4EB5555B8BF6D420CDD2C4480EA22
:1034B000020281EA030382EA000083EA010180EA52
:1034C000020281EA0303362D88BF30BD11F0004FA0
:1034D0004FEA01314FF4801C4CEA113102D04042D6
:1034E00061EB410113F0004F4FEA03334CEA133311
:1034F00002D0524263EB430394EA050F00F0A78029
:10350000A4F10104D5F1200E0DDB02FA0EFC22FA23
:1035100005F2801841F1000103FA0EF2801843FA17
:1035200005F359410EE0A5F120050EF1200E012A08
:1035300003FA0EFC28BF4CF0020C43FA05F3C01846
:1035400051EBE37101F0004507D54FF0000EDCF1BF
:10355000000C7EEB00006EEB0101B1F5801F1BD368
:10356000B1F5001F0CD349085FEA30004FEA3C0C6C
:1035700004F101044FEA445212F5800F80F09A8062
:10358000BCF1004F08BF5FEA500C50F1000041EB66
:10359000045141EA050130BD5FEA4C0C404141EB6A
:1035A000010111F4801FA4F10104E9D191F0000F91
:1035B00004BF01460020B1FA81F308BF2033A3F114
:1035C0000B03B3F120020CDA0C3208DD02F1140C0B
:1035D000C2F10C0201FA0CF021FA02F10CE002F146
:1035E0001402D8BFC2F1200C01FA02F120FA0CFC3F
:1035F000DCBF41EA0C019040E41AA2BF01EB045188
:10360000294330BD6FEA04041F3C1CDA0C340EDC85
:1036100004F11404C4F1200220FA04F001FA02F3C8
:1036200040EA030021FA04F345EA030130BDC4F186
:103630000C04C4F1200220FA02F001FA04F340EA7B
:103640000300294630BD21FA04F0294630BD94F02C
:10365000000F83F4801306BF81F480110134013D13
:103660004EE77FEA645C18BF7FEA655C29D094EA84
:10367000050F08BF90EA020F05D054EA000C04BF02
:103680001946104630BD91EA030F1EBF00210020ED
:1036900030BD5FEA545C05D14000494128BF41F08C
:1036A000004130BD14F580043CBF01F5801130BDF0
:1036B00001F0004545F0FE4141F470014FF000007B
:1036C00030BD7FEA645C1ABF194610467FEA655C2C
:1036D0001CBF0B46024650EA013406BF52EA0335CE
:1036E00091EA030F41F4002130BD00BF90F0000FBC
:1036F00004BF0021704730B54FF4806404F13204F8
:103700004FF000054FF0000150E700BF90F0000FB0
:1037100004BF0021704730B54FF4806404F13204D7
:1037200010F0004548BF40424FF000013EE700BFA7
:1037300042004FEAE2014FEA31014FEA02701FBF37
:1037400012F07F4393F07F4F81F06051704792F009
:10375000000F14BF93F07F4F704730B54FF4607483
:1037600001F0004521F0004120E700BF50EA0102CE
:1037700008BF704730B54FF000050AE050EA01027B
:1037800008BF704730B511F0004502D5404261EBEB
:1037900041014FF4806404F132045FEA915C3FF42C
:1037A000DCAE4FF003025FEADC0C18BF03325FEAC5
:1037B000DC0C18BF033202EBDC02C2F1200300FA7A
:1037C00003FC20FA02F001FA03FE40EA0E0021FA9F
:1037D00002F11444C1E600BF70B54FF0FF0C4CF489
:1037E000E06C1CEA11541DBF1CEA135594EA0C0F3F
:1037F00095EA0C0F00F0DEF82C4481EA030621EA7A
:103800004C5123EA4C5350EA013518BF52EA0335B4
:1038100041F4801143F4801338D0A0FB02CE4FF066
:103820000005E1FB02E506F00042E0FB03E54FF096
:103830000006E1FB03569CF0000F18BF4EF0010E8E
:10384000A4F1FF04B6F5007F64F5407404D25FEA8A
:103850004E0E6D4146EB060642EAC62141EA55513D
:103860004FEAC52040EA5E504FEACE2EB4F1FD0C7F
:1038700088BFBCF5E06F1ED8BEF1004F08BF5FEAFD
:10388000500E50F1000041EB045170BD06F00046AF
:1038900046EA010140EA020081EA0301B4EB5C045C
:1038A000C2BFD4EB0C0541EA045170BD41F4801154
:1038B0004FF0000E013C00F3AB8014F1360FDEBF79
:1038C000002001F0004170BDC4F10004203C35DA55
:1038D0000C341BDC04F11404C4F1200500FA05F3D8
:1038E00020FA04F001FA05F240EA020001F0004279
:1038F00021F0004110EBD37021FA04F642EB0601EF
:103900005EEA430E08BF20EAD37070BDC4F10C0418
:10391000C4F1200500FA04F320FA05F001FA04F2DC
:1039200040EA020001F0004110EBD37041F10001C8
:103930005EEA430E08BF20EAD37070BDC4F12005D3
:1039400000FA05F24EEA020E20FA04F301FA05F23B
:1039500043EA020321FA04F001F0004121FA04F2E3
:1039600020EA020000EBD3705EEA430E08BF20EAB3
:10397000D37070BD94F0000F0FD101F000464000ED
:1039800041EB010111F4801F08BF013CF7D041EA6F
:10399000060195F0000F18BF704703F00046520073
:1039A00043EB030313F4801F08BF013DF7D043EA44
:1039B0000603704794EA0C0F0CEA135518BF95EAFA
:1039C0000C0F0CD050EA410618BF52EA4306D1D181
:1039D00081EA030101F000414FF0000070BD50EAA0
:1039E000410606BF1046194652EA430619D094EA2A
:1039F0000C0F02D150EA013613D195EA0C0F05D114
:103A000052EA03361CBF104619460AD181EA030167
:103A100001F0004141F0FE4141F470014FF000001F
:103A200070BD41F0FE4141F4780170BD70B54FF0BA
:103A3000FF0C4CF4E06C1CEA11541DBF1CEA13553A
:103A400094EA0C0F95EA0C0F00F0A7F8A4EB05041C
:103A500081EA030E52EA03354FEA013100F0888013
:103A60004FEA03334FF0805545EA131343EA1263DC
:103A70004FEA022245EA111545EA10654FEA002691
:103A80000EF000419D4208BF964244F1FD0404F54A
:103A9000407402D25B084FEA3202B61A65EB0305A6
:103AA0005B084FEA32024FF480104FF4002CB6EB63
:103AB000020E75EB030E22BFB61A754640EA0C00E3
:103AC0005B084FEA3202B6EB020E75EB030E22BF23
:103AD000B61A754640EA5C005B084FEA3202B6EB64
:103AE000020E75EB030E22BFB61A754640EA9C0023
:103AF0005B084FEA3202B6EB020E75EB030E22BFF3
:103B0000B61A754640EADC0055EA060E18D04FEAB0
:103B1000051545EA16754FEA06164FEAC30343EA50
:103B200052734FEAC2025FEA1C1CC0D111F4801F1D
:103B30000BD141EA00014FF000004FF0004CB6E716
:103B400011F4801F04BF01430020B4F1FD0C88BFB5
:103B5000BCF5E06F3FF6AFAEB5EB030C04BFB6EBC0
:103B6000020C5FEA500C50F1000041EB045170BDB3
:103B70000EF0004E4EEA113114EB5C04C2BFD4EBE0
:103B80000C0541EA045170BD41F480114FF0000E64
:103B9000013C90E645EA060E8DE60CEA135594EAE0
:103BA0000C0F08BF95EA0C0F3FF43BAF94EA0C0FE3
:103BB0000AD150EA01347FF434AF95EA0C0F7FF458
:103BC00025AF104619462CE795EA0C0F06D152EAAC
:103BD00003353FF4FDAE1046194622E750EA410690
:103BE00018BF52EA43067FF4C5AE50EA41047FF4A1
:103BF0000DAF52EA43057FF4EBAE12E74FF0FF3C06
:103C000006E000BF4FF0010C02E000BF4FF0010CD6
:103C10004DF804CD4FEA410C7FEA6C5C4FEA430C4F
:103C200018BF7FEA6C5C1BD001B050EA410C0CBF9E
:103C300052EA430C91EA030F02BF90EA020F002000
:103C4000704710F1000F91EA030F58BF994208BF67
:103C500090422CBFD8176FEAE37040F00100704724
:103C60004FEA410C7FEA6C5C02D150EA013C07D17B
:103C70004FEA430C7FEA6C5CD6D152EA033CD3D0C6
:103C80005DF8040B704700BF8446104662468C46C0
:103C90001946634600E000BF01B5FFF7B7FF0028F3
:103CA00048BF10F1000F01BD4DF808EDFFF7F4FF1C
:103CB0000CBF012000205DF808FB00BF4DF808EDA7
:103CC000FFF7EAFF34BF012000205DF808FB00BFCA
:103CD0004DF808EDFFF7E0FF94BF012000205DF8EC
:103CE00008FB00BF4DF808EDFFF7CEFF94BF0120A1
:103CF00000205DF808FB00BF4DF808EDFFF7C4FF9A
:103D000034BF012000205DF808FB00BF4FEA4102EC
:103D100012F5001215D211D56FF47873B3EB62521D
:103D200012D94FEAC12343F0004343EA505311F044
:103D3000004F23FA02F018BF404270474FF00000D6
:103D4000704750EA013005D111F0004008BF6FF014
:103D5000004070474FF00000704700BF4A0011D28A
:103D600012F5001211D20DD56FF47873B3EB6252D5
:103D70000ED44FEAC12343F0004343EA505323FAE1
:103D800002F070474FF00000704750EA013002D156
:103D90004FF0FF3070474FF0000070474FEA41028C
:103DA000B2F1E04324BFB3F5001CDCF1FE5C0DD999
:103DB00001F0004C4FEAC0024CEA5070B2F1004FE3
:103DC00040EB830008BF20F00100704711F0804FE6
:103DD00021D113F13872BCBF01F00040704741F4AB
:103DE00080114FEA5252C2F11802C2F1200C10FAAF
:103DF0000CF320FA02F018BF40F001004FEAC12393
:103E00004FEAD32303FA0CFC40EA0C0023FA02F336
:103E10004FEA4303CCE77FEA625307D150EA01330C
:103E20001EBF4FF0FE4040F44000704701F00040DC
:103E300040F0FE4040F40000704700BF7BB972B90B
:103E40000029BEBF00204FF0004106E008BF002857
:103E50001CBF6FF000414FF0FF3000F0B1B9ADF181
:103E6000080C6DE904CE002909DB002B1ADB00F0F9
:103E700035F8DDF804E0DDE9022304B07047404284
:103E800061EB4101002B1BDB00F028F8DDF804E0BA
:103E9000DDE9022304B0404261EB4101524263EB91
:103EA00043037047524263EB430300F017F8DDF819
:103EB00004E0DDE9022304B0404261EB41017047B8
:103EC000524263EB430300F009F8DDF804E0DDE95A
:103ED000022304B0524263EB430370472DE9F047DD
:103EE0008C460E460446089D002B50D18A42174648
:103EF0006CD9B2FA82FEBEF1000F0BD0CEF12004D5
:103F000020FA04F401FA0EF644EA060C02FA0EF75F
:103F100000FA0EF44FEA1749220CBCFBF9F01FFA25
:103F200087F809FB10C642EA064600FB08F3B342D5
:103F300009D9F61900F1FF3280F02281B34240F234
:103F40001F8102383E44F61AA2B2B6FBF9F309FB10
:103F5000136642EA064403FB08F8A04509D9E419B0
:103F600003F1FF3280F00A81A04540F20781023B55
:103F70003C44C8EB040443EA00400021002D62D019
:103F800024FA0EF400232C606B60BDE8F0878B42AE
:103F900007D9002D55D0002185E841000846BDE82D
:103FA000F087B3FA83F1002940F09080B34202D346
:103FB000824200F2F880841A66EB03060120B446C0
:103FC000002D40D085E81010BDE8F08712B9012718
:103FD000B7FBF2F7B7FA87FEBEF1000F35D1F31B3E
:103FE0004FEA17481FFA87FC0121B3FBF8F0220CB7
:103FF00008FB103642EA06460CFB00F3B34207D931
:10400000F61900F1FF3202D2B34200F2CE80104620
:10401000F61AA2B2B6FBF8F308FB136642EA0644AE
:104020000CFB03FCA44507D9E41903F1FF3202D2CB
:10403000A44500F2B5801346CCEB040443EA0040EB
:104040009CE729462846BDE8F087CEF1200106FA14
:104050000EF307FA0EF720FA01F94FEA1748CE409F
:1040600049EA0309B6FBF8FA4FEA194408FB1A6655
:104070001FFA87FC44EA06430AFB0CF29A4200FA54
:104080000EF40AD9DB190AF1FF3180F087809A42D9
:1040900040F28480AAF1020A3B449B1A1FFA89F974
:1040A000B3FBF8F108FB113349EA034301FB0CF6BB
:1040B0009E4207D9DB1901F1FF326BD29E4269D9CA
:1040C00002393B449B1B41EA0A418EE7C1F1200EB5
:1040D00022FA0EF48B40234320FA0EF706FA01F47D
:1040E0004FEA134C26FA0EF63C43B6FBFCF9270CBC
:1040F0000CFB19661FFA83F847EA064609FB08F726
:10410000B74202FA01F200FA01FA08D9F61809F1E9
:10411000FF3041D2B7423FD9A9F102091E44F61B34
:10412000A0B2B6FBFCF40CFB146640EA064704FBA5
:1041300008F8B84507D9FF1804F1FF3028D2B84570
:1041400026D9023C1F4444EA0940C8EB0707A0FBFC
:1041500002894F4544464E4614D329D065B3BAEB85
:10416000040367EB060707FA0EFECB40CF404EEA8A
:10417000030385E888000021BDE8F0871346F8E6D0
:104180001046E0E6B8EB020469EB03060138E5E708
:104190000446D8E7114695E78146C0E78A467CE7A2
:1041A000023B3C4448E708460AE702383E442FE712
:1041B000C245E7D33E46D1E72946BDE8F08700BFB8
:1041C000704700BF0B460146184600F01FB80000BC
:1041D0001FB51C46094B1B680546D86812B9084B29
:1041E0001A4600E0074B02928DE80A0022462B4651
:1041F000054900F033F800F0AFFF00BF8400002055
:10420000F6770000447800005178000010B5054CA6
:1042100013462CB10A4601460220AFF3008010BDC0
:10422000204610BD00000000014B1868704700BF19
:104230008400002008B5074B044613B10021AFF3FA
:104240000080054B1868836A03B19847204602F046
:1042500033FC00BF00000000847800000EB403B5FA
:10426000014603AB054853F8042B0068019300F0A6
:1042700015F902B05DF804EB03B07047840000202C
:1042800070B50E4B0E4CE41AA41000251E46A54234
:1042900004D056F8253098470135F8E702F00EFCB7
:1042A000084C094BE41AA41000251E46A54204D070
:1042B00056F8253098470135F8E770BDC00000205A
:1042C000C0000020D4000020C0000020024B0146A6
:1042D000186800F065B800BF84000020024B01465A
:1042E000186800F017B800BF8400002010B5431E06
:1042F0000A44914204D011F8014B03F8014FF8E74A
:1043000010BD02440346934202D003F8011BFAE7B2
:104310007047000030B500293ED051F8042C0B1F27
:104320001E49002AB8BF9B180A680C4612B95A6089
:104330000B6030BD9A420ED919685818824204BFEA
:10434000106852685A6004BF09181960236030BDB4
:10435000994203D80A4651680029F9D11468151901
:104360009D420AD11B682344D0188142136013D1A7
:104370000868034413604B680DE002D90C23036006
:1043800030BD18681C18A14204BF0C684968596008
:1043900004BF00191860536030BD00BF90030020B7
:1043A00070B5CD1C25F0030508350C2D38BF0C2544
:1043B000002D064603DA0C233360002070BDA942AD
:1043C000F9D81F4B1C681A462146A1B10B685B1B2C
:1043D0000ED40B2B03D90B60CC18CD501EE08C42B1
:1043E0000DBF63684B686360136018BF0C4615E02F
:1043F0000C464968E9E7134C23681BB9304600F0C6
:10440000CBFD20602946304600F0C6FD431CD2D0CB
:10441000C41C24F00304A0420AD1256004F10B005F
:10442000231D20F00700C31A09D05A42E25070BD84
:10443000211A304600F0B0FD0130EED1BBE770BD6F
:10444000900300208C0300209368013B002B10B4E4
:10445000936009DA9469A34202DBCBB20A2B03D141
:104460005DF8044B00F0B8BD1368581C106019705B
:10447000C8B25DF8044B7047F8B506460F461446BF
:10448000D518AC4208D03A4614F8011B3046FFF765
:10449000DBFF431CF5D100E00020F8BD2DE9F04F13
:1044A0009DB00C4617460393064618B183690BB9B5
:1044B00001F07CFD7F4B9C4201D1746808E07E4B8B
:1044C0009C4201D1B46803E07C4B9C4208BFF46875
:1044D000A38918070CD5236953B10023099320231E
:1044E0008DF8293030238DF82A30DFF8D4B144E03C
:1044F0002146304600F0C4FD0028EED04FF0FF30DA
:10450000D5E0039A111D12680391002A80F28C8075
:10451000524243F002000792049098F800302E2B8C
:1045200000F08480032298F80010654801F020FE16
:1045300048B14023CBEB000003FA00F0049B184382
:10454000049008F1010898F800105E488DF82810D2
:10455000062208F1010701F00BFE002800F095800B
:10456000594B002B40F08880039B073323F007034F
:1045700008330393099B53440993B846454615F8FD
:10458000013B1BB9B8EB07090FD003E0252BF9D08D
:10459000A846F3E74B463A4621463046FFF76CFF04
:1045A00001307FD0099B4B44099398F80030002BD1
:1045B00078D000234FF0FF320493079305920693BF
:1045C0008DF853301A930127052229783F4801F0CE
:1045D000CFFD05F10108049B38B13C4A801A07FA67
:1045E00000F0184304904546EEE7D90644BF202268
:1045F0008DF853201A0744BF2B228DF853202A78B8
:104600002A2A3FF47EAF079A00210A20A8460135E6
:1046100098F80030303B092B03D800FB023201210F
:10462000F4E700293FF479AF079276E798F8013074
:104630002A2B0BD1039B1A1D1B680392002BB8BFBA
:104640004FF0FF3308F1020805936BE70023059351
:1046500008F1010019460A258046013098F800202B
:10466000303A092A03D805FB01210123F4E7002B86
:104670003FF458AF059155E703AB00932246144B26
:1046800004A9304600F0BAF807E003AB00932246D5
:104690000F4B04A9304600F051FBB0F1FF3F8246BA
:1046A0007FF468AFA3895B063FF528AF09981DB07A
:1046B000BDE8F08FD4780000F47800001479000091
:1046C0008E78000092780000FD4700008878000096
:1046D000794400002DE9FF4755EC104B0D9FDDF8A4
:1046E00030A0002D0E4691461946B8BF22462B46F3
:1046F00027F02007BBBF05F100431D4600232D23F3
:10470000B8BF1446462F0B7003D0452F03D1013696
:1047100001E0032100E0022103AB019302AB00930F
:104720003246534645EC104B00F0AEFD472F804615
:1047300002D119F0010F28D0462F08EB060911D13C
:1047400098F80030302B0AD1002200232046294659
:10475000FFF7AAFA18B9C6F10106CAF80060DAF83C
:10476000003099440022002320462946FFF79CFA96
:1047700008B9302202E0CDF80C9006E0039B994581
:1047800003D9591C03911A70F8E7039B0E9AC8EBE2
:1047900003034046136004B0BDE8F08773B50346D9
:1047A0000029B8BF494203F8022BB4BF2D222B22A7
:1047B0000929427019DD0DF1070216460A2591FB01
:1047C000F5F405FB14113031092C02F8011D2146C6
:1047D000F5DC3031541E02F8011CB4421A460AD2EC
:1047E00014F8012B03F8012BF7E730241A46214473
:1047F00002F8024B5970101A02B070BD2DE9F04F4B
:104800008BB00C4616461F46DDF85080054601F079
:1048100057FCD0F800B0584600F0D6FB00230893B0
:10482000D8F800300490073323F0070303F108029F
:1048300094F81890C8F80020D3E90023C4E91223A3
:1048400094ED120BFEF7EEF8012819D10022002397
:10485000D4E91201FFF732FA10B12D2384F8433066
:10486000974B984AB9F1470F8CBF9046984603235F
:104870002361236823F0040323604FF0000A8EE0D5
:1048800094ED120BFEF7CEF8226860B98E4B8F497B
:1048900022F00402B9F1470F8CBF884698460323E3
:1048A00023612260E9E761684B1C94ED120B08A8B4
:1048B00001D1062309E0B9F1670F02D0B9F1470F22
:1048C00004D1002940F0AF8101236360002342F44A
:1048D0008062039307AB0290009322600DF11B03EB
:1048E000CDF8049061682846FFF7F4FE09F0DF0375
:1048F000472B804609D1079BD81C02DB6268934294
:1049000030DDA9F102095FFA89F9B9F1650F07995C
:1049100012D801394A4604F150000791FFF73EFFD3
:10492000089A8318012A8246236102DC2268D10793
:104930002FD5013323612CE0B9F1660F14D1002982
:10494000636807DD216113B92268D2071DD50133E1
:104950000B4419E013B92268D00701D5023313E0E4
:10496000012311E04FF06709079B089A934205DB8A
:1049700022682361D10708D5013305E0002BD4BF9D
:10498000C3F10203012313442361079BA3654FF086
:10499000000A9DF81B3013B12D2384F84330009793
:1049A000334609AA2146284600F052F9013002D1C7
:1049B0004FF0FF3048E123685A0501D4236965E0D0
:1049C000B9F1650F40F2D48000220023D4E912012E
:1049D000FFF76AF978B301233D4A31462846B847C4
:1049E0000130E5D0089B079A9A420BDB2368D80771
:1049F00008D423689B0740F110814FF0000804F1B0
:104A0000190905E1049B5A4631462846B84701304A
:104A1000CED04FF0000804F11A09089B013B9845DD
:104A2000E7DA01234A4631462846B8470130BFD06D
:104A300008F10108F1E7079B002B29DC0123244A38
:104A400031462846B8470130B2D0079B23B9089BAE
:104A500013B92368D907CCD5049B5A46314628465A
:104A6000B8470130A4D04FF0000904F11A0A079B9F
:104A70005B42994509DA0123524631462846B84738
:104A8000013095D009F10109F1E7089B4246A6E003
:104A9000089AA36D9A42A8BF1A46002A914607DCDD
:104AA00004F11A034FF0000A29EAE97905931BE0A3
:104AB0001346314642462846B8470130F0D177E7E1
:104AC00099780000FB7700009D780000F7770000E0
:104AD000A17800000123059A31462846B8470130E5
:104AE0003FF466AF0AF1010AA36DC9EB03029245D8
:104AF000F0DB08EB0309079A089B9A420FDB236857
:104B0000DA070CD4089B079A9844C9EB08089B1A4B
:104B10009845A8BF9846B8F1000F08DC0FE0049B49
:104B20005A4631462846B8470130EBD140E7434664
:104B30004A4631462846B84701303FF439AF4FF076
:104B4000000928EAE87804F11A0A09E0012352462C
:104B500031462846B84701303FF42AAF09F1010930
:104B6000079A089B9B1AC8EB03039945EEDB40E7C5
:104B7000089A012A01DCDB0738D501234246314679
:104B80002846B84701303FF413AF049B5A463146DC
:104B90002846B84701303FF40BAF00220023D4E988
:104BA0001201FFF781F820B14FF0000804F11A0953
:104BB0000EE0089B08F10102013B19E001234A467F
:104BC00031462846B84701303FF4F2AE08F10108FB
:104BD000089B013B9845F1DB534604F150023146F6
:104BE0002846B84701307FF404AFE1E6012342468E
:104BF00031462846B8470130EED1D9E601234A466E
:104C000031462846B84701303FF4D2AE08F10108DA
:104C1000E368099A9B1A9845F0DBE068099B984283
:104C2000B8BF184610E0002342F48062039307AB3C
:104C3000029000932260CDF804900DF11B032846EA
:104C4000FFF748FD804656E60BB0BDE8F08F00BF89
:104C50002DE9F04791461F460A698B68DDF82080F0
:104C60009342B8BF1346C9F8003091F84320064676
:104C70000C4612B10133C9F800302368990642BFCF
:104C8000D9F800300233C9F80030256815F0060560
:104C900010D104F1190A07E0012352463946304683
:104CA000C04701301AD00135E368D9F800209B1ABB
:104CB0009D42F1DB94F843302268003318BF012392
:104CC00092060FD5E1185A1C302081F84300224487
:104CD00094F8451082F84310023303E04FF0FF30A0
:104CE000BDE8F08704F1430239463046C047013041
:104CF000F4D02268D9F80050E36802F00602042AD2
:104D000008BF5D1B2269A3680CBF25EAE575002575
:104D10009342C4BF9B1AED184FF000091A344D4559
:104D200009D00123224639463046C0470130D5D04C
:104D300009F10109F3E70020BDE8F0872DE9F04310
:104D400017460A7E85B06E2A984606460C460C9B8E
:104D500001F1430E00F0AE8011D8632A22D009D8A9
:104D6000002A00F0BB80582A40F0CA8081F8452014
:104D7000834955E0642A1ED0692A1CD0C0E0732AFA
:104D800000F0B08009D86F2A2ED0702A40F0B88089
:104D90000A6842F020020A603EE0752A24D0782A90
:104DA0003AD0ADE01A6801F14205111D196013688F
:104DB00084F84230A8E021681A6811F0800F02D010
:104DC000111D196008E011F0400F02F10401196093
:104DD00002D0B2F9003000E01368002B3CDA2D223B
:104DE0005B4284F8432037E021681A6811F0800F95
:104DF00002D0111D196007E011F0400F02F104010B
:104E0000196001D0138800E01368227E5C496F2A84
:104E100014BF0A2208221BE078225A4984F8452050
:104E20002268186812F0800F00F104051D6003D19C
:104E3000550601D5038800E00368D00744BF42F05F
:104E4000200222601BB9226822F020022260102278
:104E5000002084F8430001E049490A226568A56002
:104E6000002D08DB206820F0040020602BB9002D05
:104E70007DD175460CE0002B79D07546B3FBF2F07E
:104E800002FB1033CB5C05F8013D03460028F5D149
:104E9000082A0BD12368DA0708D5236962689A4289
:104EA000DEBF302305F8013C05F1FF35C5EB0E03ED
:104EB00023612EE008681A68496910F0800F03D05A
:104EC000101D1860136808E010F0400F02F1040094
:104ED0001860136801D0198000E019600023236175
:104EE000754616E01A68111D196015686268002180
:104EF000284601F03DF908B1401B6060636804E09A
:104F000004F1420584F8422001232361002384F840
:104F10004330CDF800803B4603AA21463046FFF7D8
:104F200097FE013002D14FF0FF3026E023692A4678
:104F300039463046C0470130F5D023689B0710D56D
:104F4000002504F1190907E001234A463946304695
:104F5000C0470130E7D00135E368039A9B1A9D42B0
:104F6000F2DBE068039B9842B8BF184605E00B7877
:104F700084F8423004F142058AE705B0BDE8F083C9
:104F8000A3780000B4780000024B0A460146186876
:104F900001F022BC8400002038B5064C00230546F1
:104FA0000846236001F072FD431C02D1236803B15F
:104FB0002B6038BD98030020034611F8012B03F83D
:104FC000012B002AF9D17047034613F8012B002A60
:104FD000FBD1181A01387047F8B50F46144606463B
:104FE00018B183690BB900F0E1FF224B9C4201D15B
:104FF000746808E0204B9C4201D1B46803E01F4B69
:105000009C4208BFF468A369A360A3891A0709D565
:1050100023693BB123682069181A63699842FDB27D
:105020000FDB08E02146304600F02AF80028F1D0D6
:105030004FF0FF30F8BD2146304600F04DFF00280C
:10504000F6D1A368013BA36023685A1C22601F703D
:105050006269431C934204D0A389DB0707D50A2D5C
:1050600005D12146304600F037FF0028E0D1284620
:10507000F8BD00BFD4780000F47800001479000077
:10508000314B70B51D6806460C4625B1AB6913B9A6
:10509000284600F08BFF2D4B9C4201D16C6808E044
:1050A0002B4B9C4201D1AC6803E02A4B9C4208BFC9
:1050B000EC68A3899AB211071DD4D50602D409223F
:1050C000326038E0500712D5616B41B104F14403FE
:1050D000994202D03046FFF71DF900236363A3898C
:1050E00023F02403A3810023636023692360A38941
:1050F00043F00803A38123694BB9A38903F4207308
:10510000B3F5007F03D02146304600F0DDFFA389D0
:1051100013F0010205D00022A26062695242A2612E
:1051200003E0990758BF6269A26022694AB903F097
:10513000800080B230B143F04003A3814FF0FF30D4
:1051400070BD002070BD00BF84000020D478000036
:10515000F47800001479000008B5062001F08CFBFB
:10516000012001F0A9FC2DE9F74F03690C699C426D
:10517000804600F38380013C01F114074FEA840E5E
:1051800000F1140657F8245006EB0E030193013585
:1051900056F82430B3FBF5F507EB0E09002D39D096
:1051A0004FF0000A3846B446D34650F8042B93B269
:1051B00005FB03A34FEA134A9BB2C3EB0B03120C8C
:1051C000BCF800B005FB02A213FA8BF34FEA124AB7
:1051D0001FFA82FBDCF80020CBEB124202EB2342E9
:1051E0009BB243EA024381454FEA224B4CF8043B11
:1051F000DBD256F80E306BB9019B043B9E421A4637
:1052000002D3C8F8104005E01268043B002AF8D128
:10521000013CF3E7404601F008FA00282CDB013599
:1052200030464FF0000E57F8041BD0F800C08AB289
:10523000C2EB0E03090C13FA8CF3C1EB1C4202EB18
:1052400023429BB243EA0243B9454FEA224E40F85B
:10525000043BE8D256F8242006EB840362B9043BF1
:105260009E421A4602D3C8F8104005E01268043B7B
:10527000002AF8D1013CF3E7284600E0002003B003
:10528000BDE8F08F000000002DE9F04F59EC108BC5
:1052900097B0456A0691824609921093209CCDE909
:1052A000008945B91020FFF711F8CAF824004560BD
:1052B00085600560C560DAF82430196859B15A680C
:1052C0004A60012393408B60504600F0D6FFDAF825
:1052D000243000221A60019B9F4A002BBFBF01238C
:1052E0002360019B23F00043B8BF0193019FA4BF3B
:1052F0000023236027F000431B0D1B0593421DD1A3
:10530000109A42F20F731360009B43B9934A944B77
:10531000C7F31300002814BF1846104600E0904859
:10532000219B002B00F04A85C37813B100F10803DC
:1053300000E0C31C219A136000F040BDDDE9004588
:105340000022002320462946FEF7AEFC804658B1D5
:10535000109A01231360219B002B00F022858148C5
:105360001860013800F02ABD14AA15A945EC104BAD
:10537000504601F0D5F9C7F30A5602905EB1C5F365
:10538000130343F07F51204641F44011A6F2FF364B
:10539000CDF844801DE0159B149E1E4406F2324356
:1053A000202B0ADD009A06F21240C3F1400322FAD4
:1053B00000F007FA03F3184304E0C3F12000009B58
:1053C00003FA00F0FEF792F90123A1F1F871013E12
:1053D00011930022644BFEF74BF859A3D3E9002345
:1053E000FEF7FAF958A3D3E90023FEF743F8044681
:1053F00030460D46FEF78AF955A3D3E90023FEF7A0
:10540000EBF902460B4620462946FEF733F80446E0
:105410000D46FEF77BFC00228346002320462946EA
:10542000FEF74CFC58B15846FEF770F902460B46A1
:1054300020462946FEF738FC08B90BF1FF3BBBF1CB
:10544000160F0DD8494901EBCB01DDE90023D1E965
:105450000001FEF751FC30B10BF1FF3B002300E0EF
:1054600001230D9300E00D90149B9E1B731E05936A
:1054700043BFC3F10009002305934FF00009BBF1BE
:10548000000F07DB059BCDF830B05B44059300238C
:10549000079306E0CBF1000307930023CBEB090948
:1054A0000C93069B092B27D8052BC4BF043B0693FE
:1054B000069BA3F10203CCBF00250125032B20D8B6
:1054C000DFE803F0060E0204012302E0012308E0F6
:1054D00000230893099B002B1CDD039398461EE0D4
:1054E00000230893099B5B4403F10108039343469F
:1054F000012BB8BF012312E0012500230693089574
:1055000001E0012308934FF0FF33039398460022F4
:10551000122303E00123039398461A460992DAF80E
:10552000244000226260042101F114029A421FD833
:105530006268013262604900F6E700BFAFF30080A5
:1055400061436F63A787D23FB3C8608B288AC63F89
:10555000FB799F501344D33F0000F07FC5780000D3
:10556000CE780000A27800000000F83F40790000EB
:105570006168504600F04CFEDAF8243020601B6869
:105580000493B8F10E0F00F25D81002D00F05A81F6
:105590009DED007BBBF1000F8DED0E7B31DDA04A50
:1055A0000BF00F0302EBC30393ED007B4FEA2B14C8
:1055B000E2068DED0A7B0CD59A4BDDE90E01D3E9AD
:1055C0000823FEF733FA04F00F04CDE900010326A7
:1055D00000E00226934D6CB1E30708D5DDE90A012E
:1055E000D5E90023FEF7F8F8CDE90A010136641089
:1055F0000835F0E7DDE90A23DDE90001FEF716FAD8
:1056000020E0CBF1000404B3854B864D04F00F027B
:1056100003EBC203D3E90023DDE90E01FEF7DCF85A
:10562000CDE9000124110023022654B1E70705D576
:10563000D5E90023FEF7D0F80136012364100835C0
:10564000F3E71BB1CDE9000100E002260D9BEBB1B1
:10565000DDE900450022744B20462946FEF72EFB6B
:10566000A0B1B8F1000F11D0039B002B40F3E680EE
:105670000BF1FF330A9300226C4B20462946FEF7BC
:10568000ABF80136CDE90001039F02E0CDF828B068
:1056900047463046FEF73AF8DDE90023FEF79CF86E
:1056A0000022634BFDF7E6FE0446A1F15075CFB929
:1056B0000022604BDDE90001FDF7DAFE22462B46B1
:1056C000CDE90001FEF718FB002840F04182224698
:1056D00005F10043DDE90001FEF7F0FA002840F093
:1056E0002E82ABE0089A4E4B791E002A4AD003EB7B
:1056F000C103D3E9002300204F49FEF797F9224662
:105700002B46FDF7B5FE049C05460E46DDE900017B
:10571000FEF7FCFA1290FDF7F9FF02460B46DDE9B1
:105720000001FDF7A5FE129B303304F8013B2A4629
:105730003346CDE90001FEF7C1FA002840F021838D
:10574000DDE9002300203849FDF792FE2A46334662
:10575000FEF7B4FA002840F0D280049BE31ABB4263
:105760006CDA0022314B28463146FEF735F800222C
:1057700005460E462D4BDDE90001FEF72DF8CDE97B
:105780000001C3E703EBC10122462B46D1E900012A
:10579000FEF722F8049BCDE91201DC191D46DDE974
:1057A0000001FEF7B3FA0646FDF7B0FF30360246B9
:1057B0000B46DDE90001FDF75BFE05F8016BAC422D
:1057C000CDE900014FF0000223D11B4BDDE91201AE
:1057D000FDF750FE02460B46DDE90001FEF78CFAAC
:1057E000002840F08C80DDE9122300201249FDF7EB
:1057F0003FFE02460B46DDE90001FEF75FFAE8B125
:1058000014F8013C302B04F1FF3240F0BA82144608
:10581000F6E7064BFDF7E0FFCDE90001BFE700BF6B
:1058200040790000087A00000000F03F00002440AA
:1058300000001C40000014400000E03FDDE90E3491
:10584000CDE90034159B002B7CDBBBF10E0F79DC1E
:105850008F4B03EBCB03D3E90067099B002B14DAD2
:10586000B8F1000F11DC40F06C810022894B30460A
:105870003946FDF7B1FFDDE90023FEF733FA45466F
:105880004646002840F05F8166E1049C32463B4674
:10589000DDE90001FEF7CAF8FEF738FA0546FDF724
:1058A00035FF32463B46FDF797FF0B460246DDE9E2
:1058B0000001FDF7DDFD05F1300E04F801EB049B5E
:1058C000C3EB040EF045CDE900012ED102460B4694
:1058D000FDF7D0FD8046894602460B4630463946E4
:1058E000FEF7ECF978B942464B4630463946FEF7AA
:1058F000DBF9002800F04782E90704D443E2DDF831
:1059000028B000E01C4614F8012C392A04F1FF33BA
:1059100007D1049A9A42F5D1049930220BF1010B78
:105920000A701A7801321A702DE200225A4BFDF7E4
:1059300053FF00220023CDE90001FEF7B5F900284E
:10594000A4D020E2089A002A2DD0069A012A0ADC67
:10595000119A12B103F2334302E0149BC3F13603F0
:10596000079D4C4615E0079B08F1FF35AB42BFBFD2
:10597000079B0795EA1A0C9BB7BF9B185D1B0C93FE
:105980000025B8F1000FB9BFC8EB090400234C464D
:105990004346059A01211A4450469944059200F065
:1059A0000BFD064602E0079D089E4C465CB1059B38
:1059B000002B08DDA342059AA8BF2346C3EB0909C3
:1059C000E41AD31A0593079B002B1DDD089BABB18E
:1059D00085B131462A46504600F088FD029A0146BC
:1059E0000646504600F0F1FC02990746504600F08A
:1059F00044FC0297079B5A1B06D000E0079A0299C5
:105A0000504600F073FD02900121504600F0D4FC96
:105A10000C9B05465BB31A460146504600F066FDF6
:105A2000069B012B054618DC009B83B9019BC3F341
:105A3000130373B9019B23F000473F0D3F054FB19E
:105A4000059B013309F101090593012702E00027B5
:105A500000E0009F0C9B73B100E000272B6905EB71
:105A60008303186900F05BFCC0F1200004E0069B92
:105A7000012BD9DD0C9F0120059B184410F01F005D
:105A80000ED0C0F12003042B08DDC0F11C0008E09B
:105A900040790000000014400000244006D0184661
:105AA0001C30059B0344814404440593B9F1000F65
:105AB00005DD4A460299504600F066FD0290059BBE
:105AC000002B05DD29461A46504600F05DFD0546CF
:105AD0000D9BEBB12946029800F0A7FD002817DACC
